{
  "_format": "hh-sol-artifact-1",
  "contractName": "Contract",
  "sourceName": "contracts/Contract.sol",
  "abi": [
    {
      "inputs": [
        {
          "internalType": "uint256",
          "name": "_x",
          "type": "uint256"
        }
      ],
      "name": "changeX",
      "outputs": [
        {
          "internalType": "uint256",
          "name": "",
          "type": "uint256"
        }
      ],
      "stateMutability": "nonpayable",
      "type": "function"
    },
    {
      "inputs": [],
      "name": "x",
      "outputs": [
        {
          "internalType": "uint256",
          "name": "",
          "type": "uint256"
        }
      ],
      "stateMutability": "view",
      "type": "function"
    }
  ],
  "bytecode": "0x608060405234801561001057600080fd5b5061016a806100206000396000f3fe608060405234801561001057600080fd5b50600436106100365760003560e01c80630c55699c1461003b5780639435337e14610059575b600080fd5b610043610089565b60405161005091906100bb565b60405180910390f35b610073600480360381019061006e9190610107565b61008f565b60405161008091906100bb565b60405180910390f35b60005481565b6000816000819055506000549050919050565b6000819050919050565b6100b5816100a2565b82525050565b60006020820190506100d060008301846100ac565b92915050565b600080fd5b6100e4816100a2565b81146100ef57600080fd5b50565b600081359050610101816100db565b92915050565b60006020828403121561011d5761011c6100d6565b5b600061012b848285016100f2565b9150509291505056fea2646970667358221220b6358212e498181f00e71714e3376c05b0321c194e33cbd9640ee87d5fc7034364736f6c63430008180033",
  "linkReferences": {},
  "deployedLinkReferences": {}
}